:100000000C945F000C9487000C9487000C9487007C
:100010000C9487000C9487000C9487000C94870044
:100020000C9487000C9487000C9487000C94870034
:100030000C9487000C9487000C9487000C94870024
:100040000C9477040C9487000C942F070C94610790
:100050000C9487000C9487000C9487000C94870004
:100060000C943D020C94870000000008000201007F
:100070000003040700000000000000000102040863
:100080001020408001020408102001020408102002
:10009000040404040404040402020202020203032E
:1000A0000303030300000000250028002B000000CC
:1000B0000000240027002A00FB00B9019107112449
:1000C0001FBECFEFD8E0DEBFCDBF11E0A0E0B1E0B2
:1000D000EEE9F0E102C005900D92AE36B107D9F716
:1000E00022E0AEE6B1E001C01D92A03EB207E1F70A
:1000F00010E0CEEBD0E004C02297FE010E94490838
:10010000C83BD107C9F70E9415080C944D080C9400
:10011000000040E060E08EE691E00E94EE0368E0BF
:1001200071E08EE691E00E94120841E060E08EE608
:1001300091E00E94EE0368E171E08EE691E00E949A
:10014000120861E08CE00C94B40526E040E855E22A
:1001500060E070E083E492E00E94CD0660E080E021
:100160000E947B0560E081E00E947B0561E088E001
:100170000E947B0561E089E00E947B0561E08AE0E6
:100180000E947B0561E08BE00E947B0561E08CE0D2
:100190000E947B0520E042E060E18EE691E00E9453
:1001A000230440E060E08EE691E00E94EE0365E209
:1001B00071E08EE691E00E94120841E060E08EE678
:1001C00091E00E94EE0365E371E08EE691E00E940B
:1001D000120860ED77E080E090E00E94E4048EE693
:1001E00091E00C94E0030E94890061E070E080E0FF
:1001F00090E00C94E40422E040E160E28EE691E0BD
:100200000C946A038091AA0190E02091AB01821BBB
:10021000910908952091AB018091AA01281750F40B
:10022000E22FF0E0E455FE4F808190E02F5F2093B5
:10023000AB0108958FEF9FEF0895E091AB0180919E
:10024000AA01E81730F4F0E0E455FE4F808190E019
:1002500008958FEF9FEF08950895CF92DF92EF9268
:10026000FF920F931F93CF93DF937C01CB018A0101
:1002700020918601222389F0EB016B01C40ED51E6B
:10028000CC15DD0569F06991D701ED91FC910190E4
:10029000F081E02DC7010995F3CF642F0E9414026D
:1002A000C801DF91CF911F910F91FF90EF90DF90E8
:1002B000CF900895CF93DF931F92CDB7DEB76983B8
:1002C000209186012223D1F020918701203240F035
:1002D00021E030E0FC013383228380E090E015C010
:1002E00080918801E82FF0E0E757FE4F99819083D5
:1002F0008F5F809388018093870105C061E0CE0104
:1003000001960E94140281E090E00F90DF91CF915E
:100310000895FC011382128248EE53E060E070E021
:1003200044835583668377838AE491E09183808355
:10033000089581E0809386016093A901109288015D
:100340001092870108950F93062F21E040918701B5
:1003500069E871E08091A9010E94BD0110928801B5
:1003600010928701109286010F91089561E00C941C
:10037000A3018AE791E00C9489010F93413208F0C0
:100380004AC0909139029111FCCF92E090933902CA
:10039000009337029FEF9093CC011092110240938B
:1003A0001002FB0162E172E0DB019A2F961B9417A9
:1003B00018F491919D93F9CF1092380290913802E0
:1003C000880F892B8093380280913602813061F446
:1003D00010923602809138028093BB008091BC005D
:1003E00083FDF8CF85EC01C085EE8093BC0022230D
:1003F00021F0809139028230E1F38091CC018F3F6E
:1004000061F08091CC01803251F08091CC01803339
:1004100041F483E007C081E005C080E003C082E0D2
:1004200001C084E00F910895613298F4209139025F
:10043000243089F46093EE01FC0180EF91E0DC014F
:100440002A2F281B261718F421912D93F9CF80E02D
:10045000089581E0089582E0089585ED8093BC00C1
:100460008091BC0084FDFCCF10923902089585EC88
:100470008093BC001092390208951F920F920FB61C
:100480000F9211242F933F934F935F936F937F931A
:100490008F939F93AF93BF93EF93FF938091B90096
:1004A000887F803609F49EC078F5883209F45DC0F3
:1004B00090F4803109F456C038F4882309F4F5C06B
:1004C000883009F44FC0F5C0883109F44EC080323D
:1004D00009F45FC0EEC0803409F46AC058F4803378
:1004E00009F457C0883309F0E4C08093CC010E941E
:1004F0003702DFC0803509F44FC0883509F45DC08C
:10050000883409F0D6C0D3C0883909F4C4C0A8F42F
:10051000883709F467C038F4883609F463C0803737
:1005200009F460C0C6C0883809F4B5C0803909F440
:100530005FC0803809F0BDC05BC0803B09F483C058
:1005400038F4803A09F466C0883A09F47CC0B1C036
:10055000803C09F4A4C0883C09F4A1C0883B09F49C
:1005600087C0A7C08091380210C09091110280917D
:100570001002981770F5E091110281E08E0F8093C0
:100580001102F0E0EE5EFD4F80818093BB0085ECB0
:1005900083C08093CC018BC0E091110281E08E0F6B
:1005A000809311028091BB00F0E0EE5EFD4F8083EE
:1005B00090911102809110026BC0E091110281E0D4
:1005C0008E0F809311028091BB00F0E0EE5EFD4F34
:1005D00080838091370281116AC081E08093360266
:1005E00084EA5EC083E0809339021092CD01CFCFC0
:1005F0008091CD01803208F04EC0E091CD0181E0C4
:100600008E0F8093CD018091BB00F0E0E253FE4F4E
:100610008083BDCF0E9437028091CD01803230F4BB
:10062000E091CD01F0E0E253FE4F10826091CD01E8
:1006300070E0E0913202F09133028EEC91E0099586
:100640001092CD0136C084E0809339021092EF0100
:100650001092EE01E0913402F091350209958091FB
:10066000EE01811105C081E08093EE011092F0014E
:10067000E091EF0181E08E0F8093EF01F0E0E05117
:10068000FE4F80818093BB009091EF018091EE013D
:10069000981708F47CCF85E88093BC000AC085ECED
:1006A0008093BC001092390204C01092CC010E94C9
:1006B0002D02FF91EF91BF91AF919F918F917F910B
:1006C0006F915F914F913F912F910F900FBE0F90BF
:1006D0001F901895FC01138212828AE591E09183A4
:1006E0008083648341872287138608951F93CF9365
:1006F000DF93EC01162F6C818AE791E00E9499014B
:10070000E0917A01F0917B016B85612B0190F08182
:10071000E02D8AE791E009958AE791E0DF91CF919A
:100720001F910C94B6011F93CF93DF93EC01162F0A
:1007300064600E94760381E090E00E940C05612FC6
:100740006B7FCE010E94760382E390E0DF91CF9130
:100750001F910C940C051F93CF93DF93EC01162F80
:100760000E947603612FCE01DF91CF911F910C94EF
:100770009303EF92FF921F93CF93DF931F92CDB716
:10078000DEB77C01162F607F642B49830E94AB0388
:1007900080E1189FB00111244981642BC7010F909B
:1007A000DF91CF911F91FF90EF900C94AB0341E04C
:1007B0000E94B90381E090E0089540E00C94B903F1
:1007C00061E00E94DD0380ED97E00C940C0562E08F
:1007D0000E94DD0380ED97E00C940C05CF93DF932E
:1007E000CDB7DEB728970FB6F894DEBF0FBECDBFEA
:1007F00028E0E0E0F1E0DE01119601900D922A95EB
:10080000E1F7FC012085241710F44FEF420FFE01A1
:100810003196E40FF11DE40FF11D2081260F2068B1
:10082000622F28960FB6F894DEBF0FBECDBFDF91C2
:10083000CF910C94DD03FC016681262F2460268372
:100840006C600C94DD03CF93DF93EC01423018F021
:100850008D8188608D834887222329F0413019F4E7
:100860008D8184608D8362E370E080E090E00E947F
:10087000E4046B85CE010E94760368EE73E080E0AD
:1008800090E00E94E40460E3CE010E94AB0384E99F
:1008900091E10E940C0560E3CE010E94AB0384E964
:1008A00091E10E940C0560E3CE010E94AB0386E952
:1008B00090E00E940C0560E2CE010E94AB036D81C6
:1008C0006062CE010E94DD0384E08E83CE010E942F
:1008D0001B04CE010E94E00382E08F8366E0CE011C
:1008E0000E94DD03CE01DF91CF910C94E7031F92AC
:1008F0000F920FB60F9211242F933F938F939F93D4
:10090000AF93BF9380913B0290913C02A0913D0236
:10091000B0913E0230913A0223E0230F2D3720F4AC
:100920000196A11DB11D05C026E8230F0296A11D49
:10093000B11D20933A0280933B0290933C02A09316
:100940003D02B0933E0280913F0290914002A091FF
:100950004102B09142020196A11DB11D80933F0258
:1009600090934002A0934102B0934202BF91AF9195
:100970009F918F913F912F910F900FBE0F901F90DD
:1009800018953FB7F89480913F0290914002A09152
:100990004102B091420226B5A89B05C02F3F19F035
:1009A0000196A11DB11D3FBF6627782F892F9A2F71
:1009B000620F711D811D911D42E0660F771F881F18
:1009C000991F4A95D1F70895CF92DF92EF92FF9247
:1009D000CF93DF936B017C010E94C104EB01C11432
:1009E000D104E104F10489F00E9424080E94C104AA
:1009F0006C1B7D0B683E734090F381E0C81AD108F0
:100A0000E108F108C851DC4FEACFDF91CF91FF90A8
:100A1000EF90DF90CF9008958230910538F0880FE5
:100A2000991F880F991F05970197F1F708957894FA
:100A300084B5826084BD84B5816084BD85B58260E3
:100A400085BD85B5816085BDEEE6F0E08081816081
:100A50008083E1E8F0E01082808182608083808181
:100A600081608083E0E8F0E0808181608083E1EB59
:100A7000F0E0808184608083E0EBF0E08081816041
:100A80008083EAE7F0E080818460808380818260F7
:100A900080838081816080838081806880831092E0
:100AA000C1000895833081F028F4813099F08230BC
:100AB000A1F008958730A9F08830B9F08430D1F4DE
:100AC000809180008F7D03C0809180008F7780931C
:100AD0008000089584B58F7702C084B58F7D84BD72
:100AE00008958091B0008F7703C08091B0008F7D12
:100AF0008093B0000895CF93DF9390E0FC01E45819
:100B0000FF4F2491FC01E057FF4F8491882349F166
:100B100090E0880F991FFC01E255FF4FA591B49119
:100B20008C559F4FFC01C591D4919FB7611108C0AE
:100B3000F8948C91209582238C93888182230AC01B
:100B4000623051F4F8948C91322F309583238C933A
:100B50008881822B888304C0F8948C91822B8C939B
:100B60009FBFDF91CF9108950F931F93CF93DF9392
:100B70001F92CDB7DEB7282F30E0F901E859FF4FBB
:100B80008491F901E458FF4F1491F901E057FF4FA8
:100B900004910023C9F0882321F069830E94520543
:100BA0006981E02FF0E0EE0FFF1FEC55FF4FA5919C
:100BB000B4919FB7F8948C91611103C01095812373
:100BC00001C0812B8C939FBF0F90DF91CF911F911C
:100BD0000F910895FC01818D228D90E0805C9F4FE4
:100BE000821B91098F7399270895FC01918D828D45
:100BF000981731F0828DE80FF11D858D90E00895F2
:100C00008FEF9FEF0895FC01918D828D981761F011
:100C1000828DDF01A80FB11D5D968C91928D9F5F33
:100C20009F73928F90E008958FEF9FEF089587E86C
:100C300097E0892B49F080E090E0892B29F00E9411
:100C4000870781110C9400000895FC01848DDF0159
:100C5000A80FB11DA35ABF4F2C91848D90E001962F
:100C60008F739927848FA689B7892C93A089B1891E
:100C70008C9180648C93938D848D981306C0028828
:100C8000F389E02D80818F7D80830895CF93DF935A
:100C9000EC01888D8823C9F0EA89FB89808185FD74
:100CA00005C0A889B9898C9186FD0FC00FB607FCD5
:100CB000F5CF808185FFF2CFA889B9898C9185FF16
:100CC000EDCFCE010E942506E7CFDF91CF910895A9
:100CD000CF92DF92FF920F931F93CF93DF931F92D8
:100CE000CDB7DEB76C0181E0D60158968C9358974A
:100CF0005B969C915B975C968C915C97981307C070
:100D00005096ED91FC915197808185FD2EC0F601A2
:100D1000038D10E00F5F1F4F0F731127F02EF601A8
:100D2000848DF81211C00FB607FCF9CFD60150968A
:100D3000ED91FC915197808185FFF1CFC6016983C8
:100D40000E9425066981EBCF838DE80FF11DE35AE0
:100D5000FF4F6083D6015B960C935B975296ED91A3
:100D6000FC915397808180620CC0D6015696ED911C
:100D7000FC91579760835096ED91FC91519780813B
:100D80008064808381E090E00F90DF91CF911F918C
:100D90000F91FF90DF90CF900895BF92CF92DF9296
:100DA000EF92FF92CF93DF93EC016A017B01B22EA9
:100DB000E889F98982E08083411581EE5807610551
:100DC0007105A1F060E079E08DE390E0A701960164
:100DD0000E9425082150310941095109569547952E
:100DE00037952795211580E1380798F0E889F9892A
:100DF000108260E874E88EE190E0A70196010E94FD
:100E000025082150310941095109569547953795D3
:100E10002795EC85FD853083EE85FF852083188E30
:100E2000EC89FD89B082EA89FB89808180618083B9
:100E3000EA89FB89808188608083EA89FB898081D7
:100E400080688083EA89FB8980818F7D8083DF9140
:100E5000CF91FF90EF90DF90CF90BF9008951F92B9
:100E60000F920FB60F9211242F938F939F93EF93AE
:100E7000FF93E0915302F09154028081E091590276
:100E8000F0915A0282FD12C0908180915C028F5FC6
:100E90008F7320915D02821751F0E0915C02F0E0C7
:100EA000ED5BFD4F958F80935C0201C08081FF91C7
:100EB000EF919F918F912F910F900FBE0F901F90E8
:100EC00018951F920F920FB60F9211242F933F93F4
:100ED0004F935F936F937F938F939F93AF93BF9342
:100EE000EF93FF9383E492E00E942506FF91EF9138
:100EF000BF91AF919F918F917F916F915F914F9132
:100F00003F912F910F900FBE0F901F90189583E483
:100F100092E00E94EA0521E0892B09F420E0822F6B
:100F20000895109246021092450288EE93E0A0E0E8
:100F3000B0E08093470290934802A0934902B09397
:100F40004A0282E691E0909344028093430285EC4A
:100F500090E09093500280934F0284EC90E0909345
:100F600052028093510280EC90E09093540280935F
:100F7000530281EC90E0909356028093550282ECEC
:100F800090E0909358028093570286EC90E0909303
:100F90005A028093590210925C0210925D021092E4
:100FA0005E0210925F020895CF92DF92EF92FF925D
:100FB0000F931F93CF93DF937C016A01EB0100E055
:100FC00010E00C151D0571F06991D701ED91FC91B0
:100FD0000190F081E02DC7010995892B19F00F5F71
:100FE0001F4FEFCFC801DF91CF911F910F91FF905D
:100FF000EF90DF90CF9008956115710581F0DB01CE
:101000000D900020E9F7AD0141505109461B570BE7
:10101000DC01ED91FC910280F381E02D099480E0E8
:1010200090E008950C94FC0708950E9417050E9413
:1010300014080E94A500C7E1D6E00E94F3002097A3
:10104000E1F30E941706F9CF0895A1E21A2EAA1B18
:10105000BB1BFD010DC0AA1FBB1FEE1FFF1FA21768
:10106000B307E407F50720F0A21BB30BE40BF50B65
:10107000661F771F881F991F1A9469F760957095EE
:10108000809590959B01AC01BD01CF010895EE0FB5
:0E109000FF1F0590F491E02D0994F894FFCF16
:10109E000000400014005400202020204163746999
:1010AE00766520202020200020202054454C4550DD
:1010BE00484F4E4500436F6E74726F6C20446576D8
:1010CE006963657300202020202053797374656D49
:1010DE00202020202000000000005A012D010201D6
:1010EE000A011D012C0100000000D703D4070000E7
:0E10FE0000006806D407EA050306F50546065D
:107E0000112484B714BE81FFF0D085E080938100F7
:107E100082E08093C00088E18093C10086E0809377
:107E2000C20080E18093C4008EE0C9D0259A86E02C
:107E300020E33CEF91E0309385002093840096BBD3
:107E4000B09BFECF1D9AA8958150A9F7CC24DD24C4
:107E500088248394B5E0AB2EA1E19A2EF3E0BF2EE7
:107E6000A2D0813461F49FD0082FAFD0023811F036
:107E7000013811F484E001C083E08DD089C08234E0
:107E800011F484E103C0853419F485E0A6D080C0E4
:107E9000853579F488D0E82EFF2485D0082F10E0AE
:107EA000102F00270E291F29000F111F8ED06801E7
:107EB0006FC0863521F484E090D080E0DECF843638
:107EC00009F040C070D06FD0082F6DD080E0C81688
:107ED00080E7D80618F4F601B7BEE895C0E0D1E017
:107EE00062D089930C17E1F7F0E0CF16F0E7DF06D8
:107EF00018F0F601B7BEE89568D007B600FCFDCFD4
:107F0000A601A0E0B1E02C9130E011968C91119780
:107F100090E0982F8827822B932B1296FA010C0160
:107F200087BEE89511244E5F5F4FF1E0A038BF0790
:107F300051F7F601A7BEE89507B600FCFDCF97BE46
:107F4000E89526C08437B1F42ED02DD0F82E2BD052
:107F50003CD0F601EF2C8F010F5F1F4F84911BD097
:107F6000EA94F801C1F70894C11CD11CFA94CF0C13
:107F7000D11C0EC0853739F428D08EE10CD085E9AC
:107F80000AD08FE07ACF813511F488E018D01DD067
:107F900080E101D065CF982F8091C00085FFFCCF94
:107FA0009093C60008958091C00087FFFCCF809118
:107FB000C00084FD01C0A8958091C6000895E0E648
:107FC000F0E098E1908380830895EDDF803219F02E
:107FD00088E0F5DFFFCF84E1DECF1F93182FE3DFCA
:107FE0001150E9F7F2DF1F91089580E0E8DFEE27F6
:047FF000FF270994CA
:027FFE00040479
:0400000300007E007B
:00000001FF
