:100000000C9464000C948C000C948C000C948C0068
:100010000C948C000C948C000C948C000C948C0030
:100020000C948C000C948C000C948C000C94680242
:100030000C948C000C948C000C948C000C948C0010
:100040000C94D1070C948C000C94B20A0C94E40A22
:100050000C948C000C948C000C948C000C948C00F0
:100060000C9497050C948C0000000008000201001D
:100070000003040700000000000000000102040863
:100080001020408001020408102001020408102002
:10009000040404040404040402020202020203032E
:1000A00003030303000000002300260029000000D2
:1000B0000000250028002B0000000000240027007D
:1000C0002A005D021305140B11241FBECFEFD8E0E8
:1000D000DEBFCDBF11E0A0E0B1E0E0E4FAE102C094
:1000E00005900D92AC3EB107D9F723E0ACEEB1E03C
:1000F00001C01D92A339B207E1F710E0C8ECD0E0CF
:1001000004C02297FE010E940B0DC23CD107C9F723
:100110000E94910C0C941E0D0C940000809104011F
:100120009091050118161906E4F440E060E08BEFA9
:1001300091E00E9448076EE071E08BEF91E00E9431
:10014000950B60910401709105014AE050E08BEF3E
:1001500091E00E94410C6EEB71E08BEF91E00E9408
:10016000950B41E060E08BEF91E00E9448078091A1
:10017000F6019091F701019719F46DE171E002C069
:1001800066E271E08BEF91E00E94950B41E06AE03E
:100190008BEF91E00E9448078091F4019091F50166
:1001A000019719F46FE271E002C068E371E08BEF30
:1001B00091E00E94950B42E060E08BEF91E00E949D
:1001C00048078091F2019091F301019719F461E4DD
:1001D00071E002C06AE471E08BEF91E00E94950B40
:1001E00042E06AE08BEF91E00E9448078091F001C5
:1001F0009091F101019719F463E571E002C06CE59B
:1002000071E08BEF91E00E94950B43E060E08BEF93
:1002100091E00E9448078091EE019091EF010197D3
:1002200019F465E671E002C06EE671E08BEF91E0D3
:100230000E94950B43E06AE08BEF91E00E94480733
:100240008091EC019091ED01019719F467E771E05D
:1002500002C060E871E08BEF91E00C94950B85E0B3
:100260000E9444098130910529F49093F70180930D
:10027000F60104C01092F7011092F60186E00E9488
:1002800044098130910529F49093F5018093F4019C
:1002900004C01092F5011092F40187E00E94440915
:1002A0008130910529F49093F3018093F20104C009
:1002B0001092F3011092F20188E00E94440981300B
:1002C000910529F49093F1018093F00104C01092FC
:1002D000F1011092F00189E00E94440981309105FA
:1002E00029F49093EF018093EE0104C01092EF0186
:1002F0001092EE018AE00E9444098130910529F4B0
:100300009093ED018093EC0108951092ED0110920D
:10031000EC010895809104019091050118161906C9
:10032000BCF060E082E00E940E0964EB70E088EFB0
:1003300091E00E94F70340E060E08BEF91E00E94C3
:10034000480769E871E08BEF91E00E94950B0EC0C1
:1003500061E082E00E940E096AE570E088EF91E0BA
:100360000E94F70361E084E00E940E09809104017D
:1003700090910501069724F060E084E00C940E094A
:10038000089526E040E855E260E070E086EF92E0F4
:100390000E94500A61E082E00E940E0961E084E060
:1003A0000E940E0960E085E00E94D50860E086E0CA
:1003B0000E94D50860E087E00E94D50860E088E0F0
:1003C0000E94D50860E089E00E94D50860E08AE0DC
:1003D0000E94D50861E082E00E94D50861E084E0D7
:1003E0000E94D50863E070E088EF91E00E94BE03B0
:1003F0006AE570E088EF91E00E94F70320E044E0B6
:1004000064E18BEF91E00E947D0741E060E08BEFBB
:1004100091E00E9448076EE971E08BEF91E00E9445
:10042000950B42E060E08BEF91E00E94480761EBA2
:1004300071E08BEF91E00E94950B60ED77E080E03A
:1004400090E00E943E088BEF91E00C943A07809177
:10045000F6019091F7012091F4013091F501820F9E
:10046000931F2091F2013091F301820F931F20918D
:10047000F0013091F101820F931F2091EE01309134
:10048000EF01820F931F2091EC013091ED01820F5B
:10049000931F26E030E0281B390B30930501209391
:1004A00004010E942F010E948E000E948A0161E0D7
:1004B00070E080E090E00C943E0824E044E160E2CB
:1004C0008BEF91E00E94C40688EF91E00C94240326
:1004D0001F920F920FB60F9211242F933F934F93B9
:1004E0005F936F937F938F939F93AF93BF93EF939C
:1004F000FF938091080287FF05C01092850010923B
:1005000084001AC020910802332727FD309580917E
:10051000070290E0281739077CF480910802992798
:1005200087FD9095FC01EE0FFF1FE80FF91FE75FB5
:10053000FD4F808186FD15C0809108028F5F8093FA
:10054000080220910802332727FD30958091070289
:1005500090E028173907BCF4809108028C305CF1D8
:1005600012C080910802992787FD9095FC01EE0F3B
:10057000FF1FE80FF91FE75FFD4F808160E08F7379
:100580000E940E09D9CF8091840090918500049635
:1005900080349C4918F480E49CE905C08091840073
:1005A00090918500049690938900809388008FEF46
:1005B0008093080238C0209184003091850080919A
:1005C0000802992787FD9095FC01EE0FFF1FE80FA9
:1005D000F91FE75FFD4F81819281820F931F9093F6
:1005E00089008093880080910802992787FD909563
:1005F000FC01EE0FFF1FE80FF91FE75FFD4F808141
:1006000086FF11C080910802992787FD9095FC0113
:10061000EE0FFF1FE80FF91FE75FFD4F808161E0DC
:100620008F730E940E09FF91EF91BF91AF919F913F
:100630008F917F916F915F914F913F912F910F908B
:100640000FBE0F901F901895209107022C30A0F438
:1006500031E0320F30930702FC012083822F90E0BB
:10066000FC01EE0FFF1FE80FF91FE75FFD4F88EB5E
:100670009BE09283818308952FEFFC0120830895EE
:10068000DF92EF92FF920F931F93CF93DF93EC01D2
:10069000D62E7A01890188818C3008F066C061E02D
:1006A0008D2D0E94D5088881A82FB0E0FD01EE0FA6
:1006B000FF1FEA0FFB1FE75FFD4F2D2D2F7390816A
:1006C000907C922B908360E272E06E197F0977FF35
:1006D00002C06D5F7F4F75956795759567956983C6
:1006E00040E659E0401B510B57FF02C04D5F5F4F82
:1006F00055954795559547954A836CE00E94B10CF6
:100700009CE0899FB001112420E030E0A901460F50
:10071000571FFA01EE0FFF1FE40FF51FE75FFD4FB4
:10072000908196FD16C02F5F3F4F2C30310571F739
:1007300081110FC01092800082E08093810010929E
:10074000850010928400B19A80916F00826080933E
:100750006F00888190E0FC01EE0FFF1FE80FF91F8A
:10076000E75FFD4F8081806480838881DF91CF9136
:100770001F910F91FF90EF90DF90089520E639E0F0
:1007800040E252E00C944003FC0180818C3070F513
:10079000918128E830E0291B310997FD3395220F1C
:1007A000331F220F331F621773077CF0928128E5F5
:1007B00032E0291B310997FD3395220F331F220F99
:1007C000331F621773070CF49B0122503109220F6B
:1007D000331F4FB7F89490E0FC01EE0FFF1FE80FB6
:1007E000F91FE75FFD4F328321834FBF08954F927A
:1007F0005F926F927F92AF92BF92CF92DF92EF9211
:10080000FF920F931F93CF93DF93EC01603282E04E
:1008100078070CF040C077FD06C0653B71052CF0F1
:1008200064EB70E002C060E070E0898128E830E0AD
:10083000281B310987FD3395220F331F220F331FE9
:100840005901CC24B7FCC094DC2C882777FD809517
:10085000982F2A8148E552E0421B510927FD539504
:10086000440F551F440F551F2A01662457FC6094FE
:10087000762C7F926F925F924F9214EBE12EF12CC7
:1008800000E010E020E030E0A9010E94490C0F9048
:100890000F900F900F90CE01DF91CF911F910F918C
:1008A000FF90EF90DF90CF90BF90AF907F906F90D0
:1008B0005F904F900C94C40380915D0290E0209172
:1008C0005E02821B9109089520915E0280915D0273
:1008D000281750F4E22FF0E0E15AFD4F808190E0BC
:1008E0002F5F20935E0208958FEF9FEF0895E091B0
:1008F0005E0280915D02E81730F4F0E0E15AFD4FAE
:10090000808190E008958FEF9FEF08950895CF9232
:10091000DF92EF92FF920F931F93CF93DF937C01AF
:10092000CB018A0120913902222389F0EB016B016E
:10093000C40ED51ECC15DD0569F06991D701ED9186
:10094000FC910190F081E02DC7010995F3CF642F50
:100950000E946E05C801DF91CF911F910F91FF900A
:10096000EF90DF90CF900895CF93DF931F92CDB794
:10097000DEB76983209139022223D1F020913A0217
:10098000203240F021E030E0FC013383228380E01C
:1009900090E015C080913B02E82FF0E0E45CFD4F51
:1009A000998190838F5F80933B0280933A0205C0C8
:1009B00061E0CE0101960E946E0581E090E00F900B
:1009C000DF91CF910895FC011382128248EE53E02B
:1009D00060E070E0448355836683778388EC91E020
:1009E00091838083089581E08093390260935C0253
:1009F00010923B0210923A0208950F93062F21E0C5
:100A000040913A026CE372E080915C020E9417050B
:100A100010923B0210923A02109239020F910895FF
:100A200061E00C94FD048DE292E00C94E3040F93DA
:100A3000413208F04AC09091EC029111FCCF92E053
:100A40009093EC020093EA029FEF90937F02109242
:100A5000C4024093C302FB0165EC72E0DB019A2FF4
:100A6000961B941718F491919D93F9CF1092EB0275
:100A70009091EB02880F892B8093EB028091E90221
:100A8000813061F41092E9028091EB028093BB0007
:100A90008091BC0083FDF8CF85EC01C085EE80938A
:100AA000BC00222321F08091EC028230E1F380919E
:100AB0007F028F3F61F080917F02803251F0809100
:100AC0007F02803341F483E007C081E005C080E00D
:100AD00003C082E001C084E00F910895613298F470
:100AE0002091EC02243089F46093A102FC0183EA96
:100AF00092E0DC012A2F281B261718F421912D9350
:100B0000F9CF80E0089581E0089582E0089585EDB1
:100B10008093BC008091BC0084FDFCCF1092EC025D
:100B2000089585EC8093BC001092EC0208951F920A
:100B30000F920FB60F9211242F933F934F935F9311
:100B40006F937F938F939F93AF93BF93EF93FF9395
:100B50008091B900887F803609F49EC078F588328C
:100B600009F45DC090F4803109F456C038F488234C
:100B700009F4F5C0883009F44FC0F5C0883109F494
:100B80004EC0803209F45FC0EEC0803409F46AC000
:100B900058F4803309F457C0883309F0E4C08093D7
:100BA0007F020E949105DFC0803509F44FC088356F
:100BB00009F45DC0883409F0D6C0D3C0883909F47F
:100BC000C4C0A8F4883709F467C038F4883609F43B
:100BD00063C0803709F460C0C6C0883809F4B5C066
:100BE000803909F45FC0803809F0BDC05BC0803B2C
:100BF00009F483C038F4803A09F466C0883A09F4ED
:100C00007CC0B1C0803C09F4A4C0883C09F4A1C0F8
:100C1000883B09F487C0A7C08091EB0210C0909177
:100C2000C4028091C302981770F5E091C40281E07C
:100C30008E0F8093C402F0E0EB53FD4F80818093D0
:100C4000BB0085EC83C080937F028BC0E091C4021F
:100C500081E08E0F8093C4028091BB00F0E0EB53E3
:100C6000FD4F80839091C4028091C3026BC0E091DC
:100C7000C40281E08E0F8093C4028091BB00F0E03B
:100C8000EB53FD4F80838091EA0281116AC081E0BD
:100C90008093E90284EA5EC083E08093EC021092C4
:100CA0008002CFCF80918002803208F04EC0E09168
:100CB000800281E08E0F809380028091BB00F0E083
:100CC000EF57FD4F8083BDCF0E9491058091800238
:100CD000803230F4E0918002F0E0EF57FD4F108257
:100CE0006091800270E0E091E502F091E60281E817
:100CF00092E009951092800236C084E08093EC0265
:100D00001092A2021092A102E091E702F091E80293
:100D100009958091A102811105C081E08093A10213
:100D20001092A302E091A20281E08E0F8093A202B2
:100D3000F0E0ED55FD4F80818093BB009091A202C1
:100D40008091A102981708F47CCF85E88093BC00BD
:100D50000AC085EC8093BC001092EC0204C0109293
:100D60007F020E948705FF91EF91BF91AF919F9104
:100D70008F917F916F915F914F913F912F910F9044
:100D80000FBE0F901F901895FC011382128288ED00
:100D900091E091838083648341872287138608953D
:100DA0001F93CF93DF93EC01162F6C818DE292E0BD
:100DB0000E94F304E0912D02F0912E026B85612BCD
:100DC0000190F081E02D8DE292E009958DE292E0B4
:100DD000DF91CF911F910C9410051F93CF93DF9358
:100DE000EC01162F64600E94D00681E090E00E9422
:100DF0006608612F6B7FCE010E94D00682E390E0EF
:100E0000DF91CF911F910C9466081F93CF93DF93CE
:100E1000EC01162F0E94D006612FCE01DF91CF91F9
:100E20001F910C94ED06EF92FF921F93CF93DF93E7
:100E30001F92CDB7DEB77C01162F607F642B4983EC
:100E40000E94050780E1189FB00111244981642B9D
:100E5000C7010F90DF91CF911F91FF90EF900C94FD
:100E6000050741E00E94130781E090E0089540E00B
:100E70000C94130761E00E94370780ED97E00C9413
:100E8000660862E00E94370780ED97E00C946608E0
:100E9000CF93DF93CDB7DEB728970FB6F894DEBFB8
:100EA0000FBECDBF28E0E6E0F1E0DE011196019033
:100EB0000D922A95E1F7FC012085241710F44FEFDD
:100EC000420FFE013196E40FF11DE40FF11D208168
:100ED000260F2068622F28960FB6F894DEBF0FBE4B
:100EE000CDBFDF91CF910C943707FC016681262F8F
:100EF000246026836C600C943707CF93DF93EC015A
:100F0000423018F08D8188608D834887222329F034
:100F1000413019F48D8184608D8362E370E080E05C
:100F200090E00E943E086B85CE010E94D00668EEDC
:100F300073E080E090E00E943E0860E3CE010E94F2
:100F4000050784E991E10E94660860E3CE010E94F2
:100F5000050784E991E10E94660860E3CE010E94E2
:100F6000050786E990E00E94660860E2CE010E94D3
:100F700005076D816062CE010E94370784E08E8391
:100F8000CE010E947507CE010E943A0782E08F834E
:100F900066E0CE010E943707CE01DF91CF910C941D
:100FA00041071F920F920FB60F9211242F933F9378
:100FB0008F939F93AF93BF938091EE029091EF0236
:100FC000A091F002B091F1023091ED0223E0230FE5
:100FD0002D3720F40196A11DB11D05C026E8230F71
:100FE0000296A11DB11D2093ED028093EE02909315
:100FF000EF02A093F002B093F1028091F20290917F
:10100000F302A091F402B091F5020196A11DB11D69
:101010008093F2029093F302A093F402B093F5024E
:10102000BF91AF919F918F913F912F910F900FBEE4
:101030000F901F9018953FB7F8948091F20290910D
:10104000F302A091F402B091F50226B5A89B05C069
:101050002F3F19F00196A11DB11D3FBF6627782FC4
:10106000892F9A2F620F711D811D911D42E0660F1D
:10107000771F881F991F4A95D1F70895CF92DF9265
:10108000EF92FF92CF93DF936B017C010E941B08CC
:10109000EB01C114D104E104F10489F00E94A00C19
:1010A0000E941B086C1B7D0B683E734090F381E02F
:1010B000C81AD108E108F108C851DC4FEACFDF9126
:1010C000CF91FF90EF90DF90CF90089582309105FF
:1010D00038F0880F991F880F991F05970197F1F72E
:1010E0000895789484B5826084BD84B5816084BDA0
:1010F00085B5826085BD85B5816085BDEEE6F0E091
:10110000808181608083E1E8F0E0108280818260EC
:101110008083808181608083E0E8F0E0808181606D
:101120008083E1EBF0E0808184608083E0EBF0E09D
:10113000808181608083EAE7F0E080818460808341
:1011400080818260808380818160808380818068EB
:1011500080831092C1000895833081F028F481309B
:1011600099F08230A1F008958730A9F08830B9F065
:101170008430D1F4809180008F7D03C08091800005
:101180008F7780938000089584B58F7702C084B5EF
:101190008F7D84BD08958091B0008F7703C08091CA
:1011A000B0008F7D8093B0000895CF93DF9390E0DF
:1011B000FC01E458FF4F2491FC01E057FF4F84915C
:1011C000882349F190E0880F991FFC01E854FF4FF4
:1011D000A591B49182559F4FFC01C591D4919FB7C1
:1011E000611108C0F8948C91209582238C9388819A
:1011F00082230AC0623051F4F8948C91322F3095DA
:1012000083238C938881822B888304C0F8948C91EB
:10121000822B8C939FBFDF91CF9108950F931F93E3
:10122000CF93DF931F92CDB7DEB7282F30E0F901BF
:10123000E859FF4F8491F901E458FF4F1491F901E7
:10124000E057FF4F04910023C9F0882321F0698300
:101250000E94AC086981E02FF0E0EE0FFF1FE2551D
:10126000FF4FA591B4919FB7F8948C91611103C081
:101270001095812301C0812B8C939FBF0F90DF912C
:10128000CF911F910F910895CF93DF93282F30E0D6
:10129000F901E859FF4F8491F901E458FF4FD491C7
:1012A000F901E057FF4FC491CC2391F081110E94C6
:1012B000AC08EC2FF0E0EE0FFF1FEC55FF4FA591AF
:1012C000B4912C912D2381E090E021F480E002C0C4
:1012D00080E090E0DF91CF910895FC01818D228D17
:1012E00090E0805C9F4F821B91098F73992708952E
:1012F000FC01918D828D981731F0828DE80FF11DE0
:10130000858D90E008958FEF9FEF0895FC01918DFA
:10131000828D981761F0828DDF01A80FB11D5D9657
:101320008C91928D9F5F9F73928F90E008958FEFC5
:101330009FEF08958AE09BE0892B49F080E090E0E0
:10134000892B29F00E940A0B81110C94000008954A
:10135000FC01848DDF01A80FB11DA35ABF4F2C9152
:10136000848D90E001968F739927848FA689B78921
:101370002C93A089B1898C9180648C93938D848DFA
:10138000981306C00288F389E02D80818F7D8083C9
:101390000895CF93DF93EC01888D8823C9F0EA8903
:1013A000FB89808185FD05C0A889B9898C9186FD5E
:1013B0000FC00FB607FCF5CF808185FFF2CFA8895B
:1013C000B9898C9185FFEDCFCE010E94A809E7CFA6
:1013D000DF91CF910895CF92DF92FF920F931F93E9
:1013E000CF93DF931F92CDB7DEB76C0181E0D601BA
:1013F00058968C9358975B969C915B975C968C91D2
:101400005C97981307C05096ED91FC91519780819D
:1014100085FD2EC0F601038D10E00F5F1F4F0F7387
:101420001127F02EF601848DF81211C00FB607FCBB
:10143000F9CFD6015096ED91FC915197808185FFAF
:10144000F1CFC60169830E94A8096981EBCF838D22
:10145000E80FF11DE35AFF4F6083D6015B960C93B2
:101460005B975296ED91FC915397808180620CC0FE
:10147000D6015696ED91FC91579760835096ED9169
:10148000FC91519780818064808381E090E00F908F
:10149000DF91CF911F910F91FF90DF90CF90089532
:1014A000BF92CF92DF92EF92FF92CF93DF93EC0146
:1014B0006A017B01B22EE889F98982E080834115B7
:1014C00081EE580761057105A1F060E079E08DE3D8
:1014D00090E0A70196010E94BD0C215031094109FD
:1014E00051095695479537952795211580E138077D
:1014F00098F0E889F989108260E874E88EE190E05C
:10150000A70196010E94BD0C2150310941095109E2
:101510005695479537952795EC85FD853083EE8563
:10152000FF852083188EEC89FD89B082EA89FB89CA
:10153000808180618083EA89FB89808188608083E3
:10154000EA89FB89808180688083EA89FB898081C0
:101550008F7D8083DF91CF91FF90EF90DF90CF90D0
:10156000BF9008951F920F920FB60F9211242F93E0
:101570008F939F93EF93FF93E0910603F0910703FE
:101580008081E0910C03F0910D0382FD12C09081E7
:1015900080910F038F5F8F7320911003821751F09A
:1015A000E0910F03F0E0EA50FD4F958F80930F0319
:1015B00001C08081FF91EF919F918F912F910F90AA
:1015C0000FBE0F901F9018951F920F920FB60F929B
:1015D00011242F933F934F935F936F937F938F9338
:1015E0009F93AF93BF93EF93FF9386EF92E00E9498
:1015F000A809FF91EF91BF91AF919F918F917F913A
:101600006F915F914F913F912F910F900FBE0F906F
:101610001F90189586EF92E00E946D0921E0892BBA
:1016200009F420E0822F08951092F9021092F80236
:1016300088EE93E0A0E0B0E08093FA029093FB0282
:10164000A093FC02B093FD0280EE91E09093F7022C
:101650008093F60285EC90E090930303809302035D
:1016600084EC90E0909305038093040380EC90E079
:10167000909307038093060381EC90E09093090315
:101680008093080382EC90E090930B0380930A030D
:1016900086EC90E090930D0380930C0310920F035F
:1016A0001092100310921103109212030895CF921A
:1016B000DF92EF92FF920F931F93CF93DF937C0102
:1016C0006A01EB0100E010E00C151D0571F0699155
:1016D000D701ED91FC910190F081E02DC7010995B2
:1016E000892B19F00F5F1F4FEFCFC801DF91CF910A
:1016F0001F910F91FF90EF90DF90CF9008956115AB
:10170000710581F0DB010D900020E9F7AD0141503A
:101710005109461B570BDC01ED91FC910280F381CE
:10172000E02D099480E090E008950C947F0BDC019B
:10173000ED91FC910190F081E02D09948F929F92A0
:10174000AF92BF92CF92DF92EF92FF920F931F93CF
:10175000CF93DF93CDB7DEB7A1970FB6F894DEBF76
:101760000FBECDBF7C01C42EE52FCB01D22E19A216
:1017700021E02D1510F02AE0D22E8E010F5D1F4FB3
:101780008D2C912CA12CB12C6C2D7E2FA5019401B8
:101790000E94BD0C8C2DD29E80191124015011097C
:1017A0008A3014F4805D01C0895CF80180832115C2
:1017B00031054105510521F0C22EE32FCA01E4CFC6
:1017C000B801C7010E947F0BA1960FB6F894DEBF47
:1017D0000FBECDBFDF91CF911F910F91FF90EF9082
:1017E000DF90CF90BF90AF909F908F900895CF9251
:1017F000DF92EF92FF920F931F93CF93DF93EC0151
:101800006A017B012115310579F4E881F9810190A4
:10181000F081E02D642FDF91CF911F910F91FF9008
:10182000EF90DF90CF9009942A303105E9F477FFEB
:101830001AC06DE20E94970B8C0144275527BA010C
:101840004C195D096E097F092AE0CE010E949E0BAA
:10185000800F911FDF91CF911F910F91FF90EF901B
:10186000DF90CF9008952AE0B701A601CE01DF9165
:10187000CF911F910F91FF90EF90DF90CF900C943C
:101880009E0B9A01AB01662757FD6095762F0C944D
:10189000F70B4F925F926F927F92AF92BF92CF926F
:1018A000DF92EF92FF920F931F93CF93DF93CDB709
:1018B000DEB729013A01621B730B840B950B298952
:1018C0003A894B895C892A193B094C095D09298BA6
:1018D0003A8B4B8B5C8B9B01AC0169897A898B8934
:1018E0009C890E94A10CE418F50806091709A801B3
:1018F00097010E94DF0C2A0D3B1D4C1D5D1DCA0186
:10190000B901DF91CF911F910F91FF90EF90DF9080
:10191000CF90BF90AF907F906F905F904F90089561
:1019200008950E9471080E94900C0E94C101CAE9AA
:10193000D9E00E9427022097E1F30E949A09F9CF8B
:101940000895DB018F939F930E94FE0CBF91AF918E
:10195000A29F800D911DA39F900DB29F900D112409
:101960000895991B79E004C0991F961708F0961BFB
:10197000881F7A95C9F780950895A1E21A2EAA1BAF
:10198000BB1BFD010DC0AA1FBB1FEE1FFF1FA2172F
:10199000B307E407F50720F0A21BB30BE40BF50B2C
:1019A000661F771F881F991F1A9469F760957095B5
:1019B000809590959B01AC01BD01CF010895052E46
:1019C00097FB1EF400940E94F60C57FD07D00E946E
:1019D000BD0C07FC03D04EF40C94F60C50954095CA
:1019E000309521953F4F4F4F5F4F089590958095CB
:1019F000709561957F4F8F4F9F4F08950E940F0DF7
:101A0000A59F900DB49F900DA49F800D911D112452
:101A10000895EE0FFF1F0590F491E02D0994A29F09
:101A2000B001B39FC001A39F700D811D1124911DB2
:101A3000B29F700D811D1124911D0895F894FFCF60
:101A400001000000060000004000140054002020A7
:101A5000204861766520536C6F743A200053313A08
:101A600046696C6C200053313A456D7074790053AF
:101A7000323A46696C6C200053323A456D70747985
:101A80000053333A46696C6C200053333A456D700D
:101A900074790053343A46696C6C200053343A45EB
:101AA0006D7074790053353A46696C6C200053357B
:101AB0003A456D7074790053363A46696C6C200073
:101AC00053363A456D707479005061726B696E6778
:101AD00020536C6F742069532046554C4C002020D5
:101AE000202043617220207061726B696E67202034
:101AF000002020202020202053797374656D202041
:101B00002020200000000000B40487045C0464046A
:101B100077048604000000003107570B0000000026
:0C1B2000EB09570B6D0986097809C9090B
:107E0000112484B714BE81FFF0D085E080938100F7
:107E100082E08093C00088E18093C10086E0809377
:107E2000C20080E18093C4008EE0C9D0259A86E02C
:107E300020E33CEF91E0309385002093840096BBD3
:107E4000B09BFECF1D9AA8958150A9F7CC24DD24C4
:107E500088248394B5E0AB2EA1E19A2EF3E0BF2EE7
:107E6000A2D0813461F49FD0082FAFD0023811F036
:107E7000013811F484E001C083E08DD089C08234E0
:107E800011F484E103C0853419F485E0A6D080C0E4
:107E9000853579F488D0E82EFF2485D0082F10E0AE
:107EA000102F00270E291F29000F111F8ED06801E7
:107EB0006FC0863521F484E090D080E0DECF843638
:107EC00009F040C070D06FD0082F6DD080E0C81688
:107ED00080E7D80618F4F601B7BEE895C0E0D1E017
:107EE00062D089930C17E1F7F0E0CF16F0E7DF06D8
:107EF00018F0F601B7BEE89568D007B600FCFDCFD4
:107F0000A601A0E0B1E02C9130E011968C91119780
:107F100090E0982F8827822B932B1296FA010C0160
:107F200087BEE89511244E5F5F4FF1E0A038BF0790
:107F300051F7F601A7BEE89507B600FCFDCF97BE46
:107F4000E89526C08437B1F42ED02DD0F82E2BD052
:107F50003CD0F601EF2C8F010F5F1F4F84911BD097
:107F6000EA94F801C1F70894C11CD11CFA94CF0C13
:107F7000D11C0EC0853739F428D08EE10CD085E9AC
:107F80000AD08FE07ACF813511F488E018D01DD067
:107F900080E101D065CF982F8091C00085FFFCCF94
:107FA0009093C60008958091C00087FFFCCF809118
:107FB000C00084FD01C0A8958091C6000895E0E648
:107FC000F0E098E1908380830895EDDF803219F02E
:107FD00088E0F5DFFFCF84E1DECF1F93182FE3DFCA
:107FE0001150E9F7F2DF1F91089580E0E8DFEE27F6
:047FF000FF270994CA
:027FFE00040479
:0400000300007E007B
:00000001FF
